{
  "contractName": "Voting",
  "abi": [
    {
      "inputs": [
        {
          "internalType": "string[]",
          "name": "candidateNames",
          "type": "string[]"
        }
      ],
      "stateMutability": "nonpayable",
      "type": "constructor"
    },
    {
      "inputs": [
        {
          "internalType": "uint256",
          "name": "",
          "type": "uint256"
        }
      ],
      "name": "candidates",
      "outputs": [
        {
          "internalType": "string",
          "name": "name",
          "type": "string"
        },
        {
          "internalType": "uint256",
          "name": "voteCount",
          "type": "uint256"
        }
      ],
      "stateMutability": "view",
      "type": "function"
    },
    {
      "inputs": [
        {
          "internalType": "address",
          "name": "",
          "type": "address"
        }
      ],
      "name": "hasVoted",
      "outputs": [
        {
          "internalType": "bool",
          "name": "",
          "type": "bool"
        }
      ],
      "stateMutability": "view",
      "type": "function"
    },
    {
      "inputs": [],
      "name": "owner",
      "outputs": [
        {
          "internalType": "address",
          "name": "",
          "type": "address"
        }
      ],
      "stateMutability": "view",
      "type": "function"
    },
    {
      "inputs": [
        {
          "internalType": "uint256",
          "name": "candidateIndex",
          "type": "uint256"
        }
      ],
      "name": "vote",
      "outputs": [],
      "stateMutability": "nonpayable",
      "type": "function"
    },
    {
      "inputs": [
        {
          "internalType": "uint256",
          "name": "index",
          "type": "uint256"
        }
      ],
      "name": "getCandidate",
      "outputs": [
        {
          "internalType": "string",
          "name": "",
          "type": "string"
        },
        {
          "internalType": "uint256",
          "name": "",
          "type": "uint256"
        }
      ],
      "stateMutability": "view",
      "type": "function"
    },
    {
      "inputs": [],
      "name": "totalCandidates",
      "outputs": [
        {
          "internalType": "uint256",
          "name": "",
          "type": "uint256"
        }
      ],
      "stateMutability": "view",
      "type": "function"
    }
  ],
  "bytecode": "0x608060405234801561000f575f5ffd5b50604051610fcc380380610fcc83398181016040528101906100319190610339565b3360025f6101000a81548173ffffffffffffffffffffffffffffffffffffffff021916908373ffffffffffffffffffffffffffffffffffffffff1602179055505f5f90505b8151811015610103576001604051806040016040528084848151811061009f5761009e610380565b5b602002602001015181526020015f815250908060018154018082558091505060019003905f5260205f2090600202015f909190919091505f820151815f0190816100e991906105bd565b506020820151816001015550508080600101915050610076565b505061068c565b5f604051905090565b5f5ffd5b5f5ffd5b5f5ffd5b5f601f19601f8301169050919050565b7f4e487b71000000000000000000000000000000000000000000000000000000005f52604160045260245ffd5b6101658261011f565b810181811067ffffffffffffffff821117156101845761018361012f565b5b80604052505050565b5f61019661010a565b90506101a2828261015c565b919050565b5f67ffffffffffffffff8211156101c1576101c061012f565b5b602082029050602081019050919050565b5f5ffd5b5f5ffd5b5f67ffffffffffffffff8211156101f4576101f361012f565b5b6101fd8261011f565b9050602081019050919050565b8281835e5f83830152505050565b5f61022a610225846101da565b61018d565b905082815260208101848484011115610246576102456101d6565b5b61025184828561020a565b509392505050565b5f82601f83011261026d5761026c61011b565b5b815161027d848260208601610218565b91505092915050565b5f610298610293846101a7565b61018d565b905080838252602082019050602084028301858111156102bb576102ba6101d2565b5b835b8181101561030257805167ffffffffffffffff8111156102e0576102df61011b565b5b8086016102ed8982610259565b855260208501945050506020810190506102bd565b5050509392505050565b5f82601f8301126103205761031f61011b565b5b8151610330848260208601610286565b91505092915050565b5f6020828403121561034e5761034d610113565b5b5f82015167ffffffffffffffff81111561036b5761036a610117565b5b6103778482850161030c565b91505092915050565b7f4e487b71000000000000000000000000000000000000000000000000000000005f52603260045260245ffd5b5f81519050919050565b7f4e487b71000000000000000000000000000000000000000000000000000000005f52602260045260245ffd5b5f60028204905060018216806103fb57607f821691505b60208210810361040e5761040d6103b7565b5b50919050565b5f819050815f5260205f209050919050565b5f6020601f8301049050919050565b5f82821b905092915050565b5f600883026104707fffffffffffffffffffffffffffffffffffffffffffffffffffffffffffffffff82610435565b61047a8683610435565b95508019841693508086168417925050509392505050565b5f819050919050565b5f819050919050565b5f6104be6104b96104b484610492565b61049b565b610492565b9050919050565b5f819050919050565b6104d7836104a4565b6104eb6104e3826104c5565b848454610441565b825550505050565b5f5f905090565b6105026104f3565b61050d8184846104ce565b505050565b5b81811015610530576105255f826104fa565b600181019050610513565b5050565b601f8211156105755761054681610414565b61054f84610426565b8101602085101561055e578190505b61057261056a85610426565b830182610512565b50505b505050565b5f82821c905092915050565b5f6105955f198460080261057a565b1980831691505092915050565b5f6105ad8383610586565b9150826002028217905092915050565b6105c6826103ad565b67ffffffffffffffff8111156105df576105de61012f565b5b6105e982546103e4565b6105f4828285610534565b5f60209050601f831160018114610625575f8415610613578287015190505b61061d85826105a2565b865550610684565b601f19841661063386610414565b5f5b8281101561065a57848901518255600182019150602085019450602081019050610635565b868310156106775784890151610673601f891682610586565b8355505b6001600288020188555050505b505050505050565b610933806106995f395ff3fe608060405234801561000f575f5ffd5b5060043610610060575f3560e01c80630121b93f1461006457806309eef43e146100805780633477ee2e146100b057806335b8e820146100e15780633866965c146101125780638da5cb5b14610130575b5f5ffd5b61007e6004803603810190610079919061050a565b61014e565b005b61009a6004803603810190610095919061058f565b6102ae565b6040516100a791906105d4565b60405180910390f35b6100ca60048036038101906100c5919061050a565b6102ca565b6040516100d892919061066c565b60405180910390f35b6100fb60048036038101906100f6919061050a565b61037f565b60405161010992919061066c565b60405180910390f35b61011a6104a2565b604051610127919061069a565b60405180910390f35b6101386104ae565b60405161014591906106c2565b60405180910390f35b5f5f3373ffffffffffffffffffffffffffffffffffffffff1673ffffffffffffffffffffffffffffffffffffffff1681526020019081526020015f205f9054906101000a900460ff16156101d7576040517f08c379a00000000000000000000000000000000000000000000000000000000081526004016101ce90610725565b60405180910390fd5b600180549050811061021e576040517f08c379a00000000000000000000000000000000000000000000000000000000081526004016102159061078d565b60405180910390fd5b60015f5f3373ffffffffffffffffffffffffffffffffffffffff1673ffffffffffffffffffffffffffffffffffffffff1681526020019081526020015f205f6101000a81548160ff0219169083151502179055506001808281548110610287576102866107ab565b5b905f5260205f2090600202016001015f8282546102a49190610805565b9250508190555050565b5f602052805f5260405f205f915054906101000a900460ff1681565b600181815481106102d9575f80fd5b905f5260205f2090600202015f91509050805f0180546102f890610865565b80601f016020809104026020016040519081016040528092919081815260200182805461032490610865565b801561036f5780601f106103465761010080835404028352916020019161036f565b820191905f5260205f20905b81548152906001019060200180831161035257829003601f168201915b5050505050908060010154905082565b60605f60018054905083106103c9576040517f08c379a00000000000000000000000000000000000000000000000000000000081526004016103c0906108df565b60405180910390fd5b600183815481106103dd576103dc6107ab565b5b905f5260205f2090600202015f01600184815481106103ff576103fe6107ab565b5b905f5260205f2090600202016001015481805461041b90610865565b80601f016020809104026020016040519081016040528092919081815260200182805461044790610865565b80156104925780601f1061046957610100808354040283529160200191610492565b820191905f5260205f20905b81548152906001019060200180831161047557829003601f168201915b5050505050915091509150915091565b5f600180549050905090565b60025f9054906101000a900473ffffffffffffffffffffffffffffffffffffffff1681565b5f5ffd5b5f819050919050565b6104e9816104d7565b81146104f3575f5ffd5b50565b5f81359050610504816104e0565b92915050565b5f6020828403121561051f5761051e6104d3565b5b5f61052c848285016104f6565b91505092915050565b5f73ffffffffffffffffffffffffffffffffffffffff82169050919050565b5f61055e82610535565b9050919050565b61056e81610554565b8114610578575f5ffd5b50565b5f8135905061058981610565565b92915050565b5f602082840312156105a4576105a36104d3565b5b5f6105b18482850161057b565b91505092915050565b5f8115159050919050565b6105ce816105ba565b82525050565b5f6020820190506105e75f8301846105c5565b92915050565b5f81519050919050565b5f82825260208201905092915050565b8281835e5f83830152505050565b5f601f19601f8301169050919050565b5f61062f826105ed565b61063981856105f7565b9350610649818560208601610607565b61065281610615565b840191505092915050565b610666816104d7565b82525050565b5f6040820190508181035f8301526106848185610625565b9050610693602083018461065d565b9392505050565b5f6020820190506106ad5f83018461065d565b92915050565b6106bc81610554565b82525050565b5f6020820190506106d55f8301846106b3565b92915050565b7f416c726561647920766f746564000000000000000000000000000000000000005f82015250565b5f61070f600d836105f7565b915061071a826106db565b602082019050919050565b5f6020820190508181035f83015261073c81610703565b9050919050565b7f496e76616c69642063616e6469646174650000000000000000000000000000005f82015250565b5f6107776011836105f7565b915061078282610743565b602082019050919050565b5f6020820190508181035f8301526107a48161076b565b9050919050565b7f4e487b71000000000000000000000000000000000000000000000000000000005f52603260045260245ffd5b7f4e487b71000000000000000000000000000000000000000000000000000000005f52601160045260245ffd5b5f61080f826104d7565b915061081a836104d7565b9250828201905080821115610832576108316107d8565b5b92915050565b7f4e487b71000000000000000000000000000000000000000000000000000000005f52602260045260245ffd5b5f600282049050600182168061087c57607f821691505b60208210810361088f5761088e610838565b5b50919050565b7f496e76616c696420696e646578000000000000000000000000000000000000005f82015250565b5f6108c9600d836105f7565b91506108d482610895565b602082019050919050565b5f6020820190508181035f8301526108f6816108bd565b905091905056fea26469706673582212201b750181aa957636f3db678a84511b486cc8d03fd26fe7b0e4423fd24640ffdf64736f6c634300081c0033",
  "immutableReferences": {},
  "source": "// contracts/Voting.sol\r\n// SPDX-License-Identifier: MIT\r\npragma solidity ^0.8.0;\r\n\r\ncontract Voting {\r\n    struct Candidate {\r\n        string name;\r\n        uint voteCount;\r\n    }\r\n\r\n    mapping(address => bool) public hasVoted;\r\n    Candidate[] public candidates;\r\n    address public owner;\r\n\r\n    modifier onlyOwner() {\r\n        require(msg.sender == owner, \"Not authorized\");\r\n        _;\r\n    }\r\n\r\n    constructor(string[] memory candidateNames) {\r\n        owner = msg.sender;\r\n        for (uint i = 0; i < candidateNames.length; i++) {\r\n            candidates.push(Candidate({\r\n                name: candidateNames[i],\r\n                voteCount: 0\r\n            }));\r\n        }\r\n    }\r\n\r\n    function vote(uint candidateIndex) public {\r\n        require(!hasVoted[msg.sender], \"Already voted\");\r\n        require(candidateIndex < candidates.length, \"Invalid candidate\");\r\n\r\n        hasVoted[msg.sender] = true;\r\n        candidates[candidateIndex].voteCount += 1;\r\n    }\r\n\r\n    function getCandidate(uint index) public view returns (string memory, uint) {\r\n        require(index < candidates.length, \"Invalid index\");\r\n        return (candidates[index].name, candidates[index].voteCount);\r\n    }\r\n\r\n    function totalCandidates() public view returns (uint) {\r\n        return candidates.length;\r\n    }\r\n}\r\n",
  "sourcePath": "C:\\Users\\abhin\\Hackathon\\polygon-voting-dapp\\contracts\\Voting.sol",
  "compiler": {
    "name": "solc",
    "version": "0.8.28+commit.7893614a.Emscripten.clang"
  },
  "schemaVersion": "3.4.16",
  "updatedAt": "2024-10-19T14:10:01.442Z",
  "devdoc": {
    "kind": "dev",
    "methods": {},
    "version": 1
  },
  "userdoc": {
    "kind": "user",
    "methods": {},
    "version": 1
  }
}